:1000000000800020BD0100002D220000F121000031
:10001000F1210000F1210000F1210000F121000098
:10002000F1210000F1210000F12100002D2200004B
:100030002D220000F12100002D220000E12100000E
:100040002D2200002D2200002D2200002D22000074
:100050002D2200002D2200002D2200002D22000064
:100060002D2200002D2200002D2200002D22000054
:100070002D2200002D2200002D2200002D22000044
:100080002D2200002D2200002D2200002D22000034
:100090002D2200002D2200002D2200002D22000024
:1000A0002D2200002D2200002D2200002D22000014
:1000B0002D2200002D2200002D2200002D22000004
:1000C0002D2200002D2200002D2200002D220000F4
:1000D0002D2200002D2200002D2200002D220000E4
:1000E0002D2200002D2200002D2200002D220000D4
:1000F0002D220000952A00002D2200008D2F0000E7
:100100002D220000A93300002D2200002D22000026
:100110002D2200002D2200002D2200002D220000A3
:100120002D2200002D2200002D2200002D22000093
:100130002D2200002D2200002D2200002D22000083
:100140002D2200002D2200002D2200002D22000073
:100150002D2200002D2200002D2200002D22000063
:100160002D220000E90500002D2200002D220000B4
:100170002D2200002D2200002D2200002D22000043
:100180002D2200002D2200002D2200002D22000033
:100190002D2200002D2200002D2200002D22000023
:1001A0002D2200002D2200002D2200002D22000013
:1001B0002D2200002D2200002D22000010B56B4BD7
:1001C0004CF220521A804DF628121A8000BF00BF50
:1001D00002F030F84FF01062654B1A60654A083340
:1001E0001A60654A04331A60A3F530432C3B1B6840
:1001F00013F4807F06D10022604B1A604FF4A8529E
:10020000043B1A605E4B1B7813F0080F04D05C4B64
:100210001A7842F008021A702A225A4B1A705A4B66
:100220005A4A9A420DD2131D594CE41A24F0030481
:1002300004340023104657495A581A500433A34235
:10024000FAD1554B554A9A4280F08B80131F54497E
:10025000C91A21F003011A1D1144002243F8042F8A
:100260008B42FBD17DE05A581A500433B3F5DE7F40
:10027000F9D14C4B80214C4A03F8011B9342FBD12E
:100280004A4B4B4A1A600A224A4B1A702422A3F6A0
:10029000FF731A70A022013B1A7006331A7812F00D
:1002A000020FFBD0444B1A7812F0100FFBD1424BD7
:1002B0001A7802F00C02082AFAD103223F4B1A7076
:1002C000402201331A7001331A7812F0200FFBD04C
:1002D000394B1A7812F0400FFBD0394A394B1A606B
:1002E000022204331A602022374B1A7006331A7820
:1002F00002F00C020C2AFAD1344A354B1A60354A06
:10030000354B1A60002204331A600722083B1A603A
:10031000324A03F551631A6062B602F03FF8174B98
:100320001B6813F0010F05D02D4801F0ABFF2D4ADB
:100330002D4B1A602D4B1B7813F0400F0AD02A4B1F
:100340001A68284B9A4205D1254801F09BFF0022EC
:10035000254B1A6003F02AFA01F072FF02F0F0F860
:10036000FEE70023124822497DE700BF0E2005402A
:1003700030800440823F04000100002B14D0034071
:1003800002D0074000E0074000C5FF1FC0C0FF1FAC
:1003900003C5FF1F9C4F0000A0D3FF1F00C5FF1F18
:1003A0009BD3FF1F00E400E05FE400E008ED00E005
:1003B0000090FF1F005006400640064004400640E3
:1003C000000003014480044000400640C0100500C6
:1003D00004800440FF76010014E000E000002020CB
:1003E000DF1A9C55A5C3945A1CE0034000F0074057
:1003F00000000000FFFFFFFFFFFFFFFFFFFFFFFF09
:10040000FFFFFFFFFFFFFFFFFFFFFFFFFEFFFFFFFD
:1004100010B5054C237833B9044B13B10448AFF33E
:1004200000800123237010BD00C5FF1F00000000E5
:100430009C4F000008B5064B1BB106480649AFF3B8
:1004400000800648036813B1054B03B1984708BD07
:10045000000000009C4F000004C5FF1F00C5FF1FE7
:1004600000000000F0B484B01A4B22221A7003225C
:100470005A70194B1B680393184B1B680293184B57
:100480001B680193174B1B6800930DF10F010DF1D1
:10049000FF32154B154C12F8010F434004FB03F3D8
:1004A0008A42F8D10B480DF1FF32104F104E1A2539
:1004B00012F8014F634007FB03F3A6FB03C4E408F3
:1004C00005FB1434413420F8024F8A42F0D104B0C5
:1004D000F0BC70471CC5FF1F548004405880044086
:1004E0005C80044060800440C59D1C819301000134
:1004F0004FECC44E70B4144B1D78144B144A002DAD
:1005000008BF13460E4639B101385C1810F8012FA8
:1005100003F8012BA342F9D145F002010D4B1B78E2
:10052000002B0CBF8822C82242EA06460A4A42F83B
:10053000316083F00103074A137085F00105024B17
:100540001D7070BC704700BFC4C5FF1F40C5FF1FB2
:1005500018C6FF1F61C6FF1F0080FF1F70B504464D
:10056000124D05EBC006706855F834301B0C12D0E4
:1005700020F8043D00F00AFD48B972B60C4B012288
:1005800002FA04F41A7814431C7062B670BD00F0CD
:100590001BFB0430706006F00806064B064A002E6E
:1005A0000CBF16461E4645F8346070BD0080FF1F24
:1005B00008C6FF1FC80040008800400038B572B66A
:1005C000084B1C7800221A7062B64CB1154614F024
:1005D000010F02D02846FFF7C1FF01356408F6D1AC
:1005E00038BD00BF08C6FF1F2DE9F84FAA4CAB4D20
:1005F000AB4EDFF8ECB22378DBB213F0040F1CBF74
:100600000422227013F0080F00F004822878C0B290
:10061000010940F0F681A34B800803EBC00251684A
:1006200053F83020C2F38302092A00F0BC810D2A5E
:1006300003D0012A40F0E281B1E19B4F0A683A60A1
:1006400049687960994943F830100021984B196046
:100650000121984B197093B240F2A132934200F0FD
:1006600004811AD8B3F5817F00F08F8007D8802BE2
:1006700069D0822B6FD0212B40F0528144E1B3F539
:10068000E07FC0F04D81B3F5E17FC0F0CA8040F259
:100690000232934200F08E8042E140F28162934246
:1006A0000CD8B3F5D06F18D2B3F5A06F00F03C8131
:1006B00040F2A152934200F0178131E1B3F5106F7F
:1006C00012D003D8B3F5086F35D029E1A3F5FD4367
:1006D000403B012B40F2B58022E1774BD3F80480F8
:1006E000B8F1000F7BD198E06F4B9A78734B1A707A
:1006F0006C4B1B6A13F0800F04D06A4B586A0838A1
:1007000000F08EFA6E4B1B786E4A137013F0080FD0
:100710000CD000F059FA634F043078626A4B3B62A8
:1007200000F052FA0430F862604BBB625D4B00226D
:100730001A639A63B3E1614B1A78644B1A704FF0F5
:1007400001099846FDE0614B00221A705A704FF083
:1007500002099846F5E0544B9B88012B03D90F23DF
:100760005B490B7018E1594A002111705170584AC9
:1007700012F8233013F0020F00F0DA80534B0122FD
:100780001A704FF002099846DBE0474B9B8803F054
:100790007F02012A02DC444A52881AB10F234C49D5
:1007A0000B70F9E04A4911F8232022F0020201F807
:1007B000232074E13C4B9B8803F07F02012A02DC7A
:1007C000394A52881AB10F23414A1370E4E0404974
:1007D00011F8232042F0020201F823205FE1324B9E
:1007E0005988354B1B888B420ED104E09B898B4284
:1007F00002D0134609E03048090A03290CBF98F8D3
:100800000090B0F808909CE02B4B03F10C021046CE
:10081000D3F81080B8F1000FE8D10F232C4A1370E1
:10082000BAE0214B9B881BB1012B00F0868004E0CD
:100830004FF00409DFF8AC8083E00F2324490B70EC
:10084000AAE0194B9B88042B04D1224B93F800900B
:10085000984676E0052B04D11F4B93F800909846FC
:100860006FE00F231A4A137096E00F4B9B88012B01
:1008700003D00F2316490B708EE0144B00221A7020
:10088000012159709A70DA701449097819715A71F6
:100890004FF00609984654E080200740902007401A
:1008A000942007400080FF1F0CC6FF1FC8004000B7
:1008B00080C5FF1F61C6FF1FA03B000060C6FF1F71
:1008C0005C3B0000C42007408800400058C6FF1F62
:1008D000C0200740083B0000743A0000C5C5FF1F58
:1008E0009820074098D3FF1F734B9B88012B03D0A0
:1008F0000F23724A13704FE0714B1A78714B1A70C4
:100900004FF0010998461CE06B4B9B88012B03D0EC
:100910000F236A490B703FE00122694B1A70BEE059
:100920000F23664A137037E04FF00009C84608E00D
:100930004FF00209DFF88C8103E04FF00409DFF883
:10094000C4815D4BDB88994528BF9946B9F1400FBA
:1009500034BF4F46402740463946FFF7CBFDB844E9
:10096000B9EB070903D13F2F00F29E8014E0B9F1E3
:10097000400F34BF4F46402740463946FFF7BAFD87
:1009800008EB0703B9EB070901D13F2F04D94E4A01
:1009900013604E4BA3F80090012333702EE04C4AB5
:1009A00043F830202AE0484BD3F80080B8F1000F1C
:1009B00019D0DFF81891B9F800A0BAF1400F34BF90
:1009C0005746402740463946FFF794FDC7EB0A03D8
:1009D0009BB2A9F800300BB9402F01D1474400E089
:1009E0000027394B1F60344B1B88B3F5A06F05D12E
:1009F000314B00225A709B788BF800300123337002
:100A000005E010F0080F02D18008FFF7A7FD0823CA
:100A10002370F0E513F0010F26D02E4902230B704E
:100A200000222D4B1A702D4B2D4818602D4C5C6008
:100A300098602D48D8601A612C4858619A612C48FA
:100A4000D8610D201D4B1870FF232A480370083809
:100A5000037018300270284A13709F22274B1A70B7
:100A600001230B70BDE8F88F13F0800F05D00D2126
:100A7000124A11708021403A117013F0020F06D013
:100A80001C4A1178C9B211700221083A117013F092
:100A9000100F0ED010221A4B1A70BDE8F88F0020EC
:100AA0000146FFF727FD77E740460021FFF722FDCB
:100AB00072E7BDE8F88F00BF0CC6FF1FC0200740DB
:100AC000C5C5FF1F58C6FF1F80C5FF1F14C6FF1FE7
:100AD000C800400094200740C4C5FF1F0080FF1FCE
:100AE0008800400084C5FF1FC8C5FF1F18C6FF1F30
:100AF00040C5FF1F882007408C2007408420074006
:100B0000802007409CD3FF1F08B500F051F8FFF785
:100B1000A9FC002320491A465A50C81842600833DD
:100B2000282BF9D11D4B1A6842F480221A608022CA
:100B300003F52833D8331A701A46137813F0800F50
:100B4000FBD1154BC3F30721154A1170C3F30741BD
:100B5000143211701B0E04321370FF23343A1370D9
:100B600008321370783A13700E4B1A7842F0400234
:100B70001A7001230C4A137000216C3211707C3AF8
:100B800013704FF40072094B1A60102203F1C04336
:100B900003F5C8231A7008BD0080FF1F348004408D
:100BA0009C2007400C2107409420074008E100E00A
:100BB000044B4FF0FF321A605A609A60DA601A6193
:100BC0005A61704764C6FF1F10B472B6114A002301
:100BD00052F8041F19B90133062BF9D105E0B1FA17
:100BE00081F202EB4312AF2A00D9FEE702F01F00A8
:100BF0004FF0004424FA00F021EA0001064840F8D2
:100C0000231062B602EB0212044800EB82005DF88A
:100C1000044B704760C6FF1F64C6FF1F0092FF1F92
:100C20000B4BC01A0B4AA2FB00139B09AF2B0ED82B
:100C3000590972B6084A03F01F034FF0004020FA2A
:100C400003F352F82100184342F8210062B67047BE
:100C50000092FF1FF1F0F0F064C6FF1F38B50446A4
:100C60000B7903F02002D5B203F01F0003F0C0039C
:100C7000402B1DD001D82BB138E0802B28D0C02BC1
:100C80002DD033E094F8CF32002B36D194F8CD320A
:100C90000344A268302B9ABF52F8230042F8231075
:100CA0000846FFF7BDFF25B3012384F8CF3220E0CB
:100CB00018289DBF04EB8003D3F86402C3F86412C4
:100CC0000846FFF7ADFFA5B1012384F8D03210E04C
:100CD0004B7984F8CC320846FFF7A2FF09E04B7944
:100CE00084F8CD320846FFF79BFF02E00846FFF785
:100CF00097FF012084F8CE0238BD002038BD00BF28
:100D00000268836806490968C3F8C4104368036031
:100D1000836843608260034B1A6801321A6070472F
:100D2000E8D1FF1F9CD3FF1F70B40E4900230E4E65
:100D300040F20335A6FB03429C1A02EB540212094F
:100D400000EB8204C2EB42129A1AD4F8644204EB1C
:100D50004202D288520821F8022F0133AB42E9D176
:100D600070BC704732C8FF1F8510420810B504469A
:100D700090F8CC3213F0040F08D013F0080F4FF0A6
:100D8000200214BF124B134B1A6009E090F8CE32C8
:100D90001BB120220E4B1A6002E020220D4B1A607C
:100DA000002384F8CE3294F8CF322BB12046FFF7DF
:100DB000A7FF002384F8CF3294F8D0322BB120461D
:100DC000FFF7B2FF002384F8D032FFF7F7FB10BD26
:100DD00084F00F4088F00F400269AAB192F8CC323B
:100DE00013F0020F12D1134B1B685068D0F8C410D7
:100DF0001268D2F8C4208A1A5B1A934228BF13469D
:100E00001B04B3FBF2F303E0002301E04FF4803353
:100E1000094A1360C3EB0362C3EB022202F1807242
:100E200002F5803205490A6003EB0323044A13608C
:100E3000704700BFE8D1FF1F80C6FF1F84C6FF1F99
:100E40007CC6FF1F2DE9F00F82B00192066901EB0D
:100E50004215454CA4FB05242F1B04EB5704240921
:100E6000376857F8248004EB4407C7EBC707ED1B2E
:100E700005EB45050135A84408F10407766856F8E6
:100E80002440254405F1040C95F80490374E98F859
:100E90000480374D2C6804FB08F4326802FB0944D7
:100EA000C4F3074808F18079A9EB08484FEA1469B0
:100EB000304C54F8199028FB19F8C8F3CF18A3F850
:100EC00000809CF801A097F801902A6802FB09F9BC
:100ED000326802FB0A9ACAF3074909F1807BABEB3F
:100EE00009494FEA1A6A04F2022B5BF81AA029FB9F
:100EF0001AF9C9F3CF19A3F802909CF802C0D6F8EA
:100F000000A0BE782D6805FB06F60AFB0C65C5F34C
:100F1000074606F18077A7EB06462D0E04F204443F
:100F200054F8154026FB14F6C6F3CF169E800069D0
:100F300090F8CC0210F0010F12D028F0FF08A3F8AF
:100F4000008029F0FF09A3F8029026F0FF069E809A
:100F500031B9019C24B94FF6FF729A805A801A80E9
:100F600002B0BDE8F00F7047876118867CC6FF1F8E
:100F700084C6FF1F34C8FF1FFF225A70704700BF8E
:100F8000014A026001617047483C000008B5014613
:100F90000148FFF763FE08BD3CCEFF1F38B5094C82
:100FA0002046094900F0A0FB084D2046294600F0E4
:100FB0009BFB204600F0AEFD28460549012200F0CB
:100FC00071F938BD10D1FF1F1CD1FF1F88C6FF1F4C
:100FD000583C000008B50448FFF7C8FE034B1A68E8
:100FE00001321A6008BD00BF3CCEFF1F98D3FF1F1F
:100FF0002DE9F041204E00242746A6F10C0810E010
:10100000FFF7E2FD3B46C21814710133402BFAD1C1
:1010100070510435C42DF3D1C83608F519739E42BA
:1010200001D02546ECE7154E06F5187506F5317624
:101030000024FFF7C9FD2346C21814710133402B69
:10104000FAD145F8040FB542F3D10C4C04F10C026F
:10105000234643F8D42B636004F5CE73A36008489D
:1010600000F03CFB074800F04DF807482146FFF729
:1010700087FFBDE8F08100BF48CEFF1F3CCEFF1FB9
:1010800010D1FF1F88C6FF1F1CD1FF1F0160002366
:1010900043608360704700BF82680068824214BF6B
:1010A00000200120704700BF426883681A4403682B
:1010B00092FBF3F003FB1020704700BF426801323F
:1010C000036892FBF3F103FB112343608368013B48
:1010D0008360704783680268934207D14268013297
:1010E00092FBF3F103FB11234360704701338360EC
:1010F000704700BF4068704708B5043000F03EFA02
:1011000008BD00BF114A026003220274104A118810
:101110009278A0F8141180F816210022C0F87C21E2
:101120000121C0F88011C0F8841180F8882180F86E
:101130008911042180F88A1180F88B21054AC0F8B2
:101140008C21054AC0F8A021704700BF504900001B
:101150004449000074420000E440000038B50446F1
:101160000579032D25D8DFE805F01209020EC1F13B
:101170001F01C9B2C2F11F02D2B208E0C1F11F00C3
:101180001146C2B203E0C2F11F000A46C1B2C1F16A
:101190001F01012505FA01F104EB8202D2F8942027
:1011A000114208D0184604F58A7100F0DFF928468C
:1011B00038BD002038BD002038BD00BF30B583B039
:1011C0001C46057C01ABFFF7C9FFE0B17DB19DF87E
:1011D000040000F0ABF920809DF8050000F0A6F9AE
:1011E00060809DF8060000F0A1F9A0800BE09DF85A
:1011F00004301B0223809DF805301B0263809DF89C
:1012000006301B02A38003B030BD00BF30B583B0F1
:101210001C46057C01ABFFF7A1FFC8B17DB19DF86D
:10122000040000F083F920709DF8050000F07EF9BD
:1012300060709DF8060000F079F9A07008E09DF854
:10124000043023709DF8053063709DF80630A3705C
:1012500003B030BD90F88931052B21D8DFE803F0C9
:10126000030303191903D0F890114942C0F89411EF
:10127000C288C0F89821C0F89C21022B02D1C0F886
:101280009C117047052B0BD1D0F88431C0F89C31EC
:1012900070470023C0F89C31C0F89831C0F89431F1
:1012A000704700BFF8B504460E461746084602F0E0
:1012B000EFFA6428B4BF0546642504F217103146DE
:1012C0002A4602F015FB84F87B51C4F87C71EDB21C
:1012D000D4F88C311B7803FB05F5013DC4F890511F
:1012E0002046FFF7B7FFF8BD2DE9F04F87B08346E2
:1012F00001890846002900F0A180002201920BF12B
:1013000090030593DBF88051019A954200F38D809C
:10131000DBF88C315C782F19974240F38680DBF83C
:101320009C211E783346961907D54FF0000909F124
:1013300001099A1904D51646F9E716464FF0000937
:10134000EBB2019AD51AEDB28742C4BFC3EB0103D9
:10135000DCB29BF888318BB10BF1940880274046B2
:1013600000213A4602F04AFA40460BF114013A468F
:1013700000F09CFE4FF000038BF888312746029561
:10138000651B0495002D0EDD019901F124030BEB83
:1013900083032A460A44059901EB8202002143F89F
:1013A000041F9342FAD19BF87B314B4538DDBBF8E3
:1013B0000630B34234DD019A131D0BEB8303039314
:1013C00023E098F81701E1B2DBF88C2100F026F950
:1013D0000006002EB4BF00FA0AF0F040D5F88030C5
:1013E0000343C5F8803001340435BC42E9DBDBF847
:1013F0008C311B781E4409F101099BF87B314B4568
:101400000EDDBBF80630B3420ADD029B9F42EEDDE3
:1014100003990D1D1C460BEB0908C6F1000AD0E725
:10142000049A531E019919440191019A01320192C3
:10143000BBF80810084691423FF764AF07B0BDE81B
:10144000F08F00BF10B5044690F88B315BB194303B
:1014500004F11401802200F029FE2046FFF744FF2A
:10146000002384F88B3110BD08B5D0F87C31002BF7
:1014700051D029490A780132D2B20A7090F88A1103
:10148000914248D20021244A117090F88921052AFE
:101490003BD8DFE802F00316283A3A03D0F89C2143
:1014A000013AC0F89C21D0F894118A4231DCD0F87E
:1014B0009821C0F89C21002B2BDD013BC0F87C312A
:1014C00027E0D0F89C21013AC0F89C21D0F8941173
:1014D0008A421EDC022280F88921002B19DD013BA3
:1014E000C0F87C3115E0D0F89C210132C0F89C2175
:1014F000D0F898118A420CDB012280F88921002B58
:1015000007DD013BC0F87C3103E0D0F88431C0F83E
:101510009C31FFF7E9FE08BD30D1FF1F10B504462E
:10152000FFF790FF2046FFF79FFF10BD0B4B1B7886
:10153000022B07D0032B0AD0012B0CD1084B185CCF
:1015400000027047074B185C000380B27047064BDF
:1015500033F8100070470002704700BFC4C0FF1F7F
:10156000604C0000604B0000604900000B78037085
:101570004B7843708B788370704700BF0B78037093
:101580004B8843808B888380704700BF30B4224BE8
:101590001B68002B02DA00221F4B1A601E4B1B68CF
:1015A0008A6802EB430532F813400246844229D090
:1015B00003D3002B28DB29461CE04C88A34226DA03
:1015C000294607E031F8020F824203D1124A136024
:1015D00018461EE00133A342F4DB0F4A13604FF0BC
:1015E000FF3016E031F8023D9A4202D10A4B1860F2
:1015F0000FE00346581E002BF4D1074B18604FF044
:10160000FF3006E0184604E04FF0FF3001E04FF0F5
:10161000FF3030BC704700BF38D1FF1F38B50D46D2
:10162000144653788B420AD91146FFF7AFFF0028C2
:1016300007DB6278E36800FB0230405D38BD0020C4
:1016400038BD002038BD00BFF8B51A4C2046FFF762
:1016500035FD2046FFF74EFD174B1A68174D440025
:10166000211805EB41110E1D17681660144A126807
:1016700016681160134A116805F5C075204405EB22
:1016800000200C6808601049086840F0807008600D
:1016900019794B119B0003F1604303F5624301F09C
:1016A0001F01012000FA01F119601279074B1A702D
:1016B000F8BD00BF94D1FF1FE0D1FF1F0082FF1FC4
:1016C00050D1FF1F40D1FF1F309004401F800040C9
:1016D00010B5044600F01AFF204610BD014B1860FB
:1016E000704700BF90D1FF1F82682AB1D3680BB149
:1016F0001A46FBE7D1607047816070472DE9F04FD3
:1017000087B00746BC4B03EB8002B2F8028033F887
:101710002060BA48FFF7C8FC00231A465FFA80FC35
:10172000B7480CEB4C0A4FEA8A0AB64D0AEB0204A2
:1017300000EBC4018E80A1F8068005EB030BBBF81B
:1017400002B0A1F802B0595B20F834100132043322
:101750000C2AEBD10CEB4C09AB4B03EB0929002312
:10176000019307F110085FFA88F8A84B1B689C6882
:1017700094B1019BDDB223689E68204629463A4613
:1017800002ABB04723689E6820462946424604AB18
:10179000B047E468002CEED1BDF808C04FEA2C1C1D
:1017A000BDF80A201211BDF80CA04FEA2A1ABDF8A4
:1017B00010603611BDF812502D11BDF814402411DF
:1017C00000206AF304106CF3000066F3861062F3E5
:1017D000C71065F3820064F345101FFA8AFA4FEAD6
:1017E0006A0363F30C301FFA8CFC4FEA6C0363F35B
:1017F0000820B6B2731063F38E3092B2531063F3C5
:10180000CF30ADB26B1063F38A20A4B2631063F3E0
:101810004D304FEAAA0363F314504FEAAC0363F36D
:101820001040B31063F39650931063F3D750AB108E
:1018300063F39240A31063F355504FEAEA0363F356
:101840001C704FEAEC0363F31860F31063F39E70AF
:10185000D31063F3DF70EB1063F39A60E31063F36C
:101860005D7000214FEA2A1363F304114FEA2C1331
:1018700063F30001331163F38611131163F3C7118E
:101880002B1163F38201231163F345114FEA6A13AD
:1018900063F30C314FEA6C1363F30821731163F3A4
:1018A0008E31531163F3CF316B1163F38A216311CE
:1018B00063F34D314FEAAA1363F314514FEAAC13AB
:1018C00063F31041B31163F39651931163F3D7514E
:1018D000AB1163F39241A31163F355514FEAEA133D
:1018E00063F31C714FEAEC1363F31861F31163F3B4
:1018F0009E71D31163F3DF71EB1163F39A61E3110E
:1019000063F35D7100234FEA2A2B6BF304134FEA54
:101910002C2B6BF300034FEA262B6BF386134FEA55
:10192000222B6BF3C7134FEA252B6BF382034FEA8D
:10193000242B6BF345134FEA6A2B6BF30C334FEAFE
:101940006C2B6BF308234FEA662B6BF38E334FEA55
:10195000622B6BF3CF334FEA652B6BF38A234FEA8D
:10196000642B6BF34D334FEAAA2B6BF314534FEAFE
:10197000AC2B6BF310434FEAA62B6BF396534FEA55
:10198000A22B6BF3D7534FEAA52B6BF392434FEA8D
:10199000A42B6BF355534FEAEA2A6AF31C734FEA00
:1019A000EC2C6CF31863F61266F39E73D21262F39A
:1019B000DF73ED1265F39A63E41264F35D73C9F8A3
:1019C0000000C9F8041040F00230C9F80C0041F0E2
:1019D0000231C9F81010C9F8083043F00233C9F8D1
:1019E0001430019B0133019309F11809202B7FF476
:1019F000BCAE07B0BDE8F08FA0D1FF1F94D1FF1F90
:101A00000082FF1F58D1FF1F8083FF1F90D1FF1F4F
:101A10002DE9F84FDFF8F880354E364D364F5FE050
:101A20003378002B4FD1354B1B7813F0FF0F0DD0BF
:101A3000334B1B689C6834B120463946FFF75CFB8A
:101A4000E468002CF8D100222C4B1A702C4B1B6838
:101A50009C6834B123681B6820469847E468002CD2
:101A6000F8D1284B1B7813F0FF0F2CD0264BD3F85E
:101A70000090264BD3F800C000220B2341F64C5EA9
:101A800040F2CB1B4FF4F07A4EFA03F084B204F12B
:101A9000150189B209FB00F090FBFCF0153080B213
:101AA000B1F5F07F04D2C4EB0B04204480B2514660
:101AB000AC1861805053013B0432B3F1FF3FE3D1D6
:101AC0000022104B1A7033780133DBB20F2B88BF22
:101AD000002333703078FFF711FE4046FFF7FAFA23
:101AE0004046FFF7D9FA00289AD0BDE8F88F00BF2A
:101AF0003CD1FF1F58D1FF1FC8C0FF1FD0C0FF1F20
:101B000090D1FF1F31D1FF1F34D1FF1F604D000066
:101B100094D1FF1F2DE9F84F33480421FFF7B6FA9F
:101B2000324900234B808A1D08241D4606E013F02D
:101B3000010F0CBFCD80CC800432043113F0020FB2
:101B400005D032F8040C40F0100022F8040C13F019
:101B5000040F05D032F8040C40F0020022F8040C07
:101B600013F0080F05D032F8040C40F0040022F8FE
:101B7000040C32F8040CC04300F01E0022F8060CDE
:101B80000133102BD3D11A4BD3F800E0194B1F6847
:101B900000220B2341F64C5640F2CB184FF4F07C58
:101BA000154D46FA03F084B204F1150189B20EFB1B
:101BB00000F090FBF7F0153080B2B1F5F07F04D261
:101BC000C4EB0804204480B26146AC1861805053D5
:101BD000013B0432B3F1FF3FE3D1DFF80C80074E45
:101BE000054D074F6EE000BF94D1FF1FA0D1FF1F2E
:101BF00034D1FF1F604D000058D1FF1F3CD1FF1FA3
:101C0000C8C0FF1F3378002B4FD1BD4B1B7813F09A
:101C1000FF0F0DD0BB4B1B689C6834B12046394682
:101C2000FFF76AFAE468002CF8D10022B44B1A706E
:101C3000B44B1B689C6834B123681B6820469847E6
:101C4000E468002CF8D1B04B1B7813F0FF0F2CD0B8
:101C5000AE4BD3F80090AE4BD3F800C000220B235C
:101C600041F64C5E40F2CB1B4FF4F07A4EFA03F093
:101C700084B204F1150189B209FB00F090FBFCF07D
:101C8000153080B2B1F5F07F04D2C4EB0B042044D0
:101C900080B25146AC1861805053013B0432B3F11D
:101CA000FF3FE3D10022984B1A7033780133DBB247
:101CB0000F2B88BF002333703078FFF71FFD40469D
:101CC000FFF708FA4046FFF7E7F900289AD00E2000
:101CD000012100F00BFB0620012100F007FB022090
:101CE000012100F003FB1520012100F0FFFA05207F
:101CF000012100F0FBFA0720012100F0F7FA14207F
:101D0000012100F0F3FA0920012100F0EFFA0A2086
:101D1000012100F0EBFA1620012100F0E7FA17206C
:101D2000012100F0E3FA00247A4B1C6004331C60AC
:101D300041F64C53784A136015210832116008327D
:101D40001360764B1A6842F451721A604FF4517165
:101D5000734A11601A6842F480321A60714A13683B
:101D600043F4003343F4807313606F4B1A6842F0FE
:101D700002021A60043B1A6842F002021A606B4BBE
:101D80001A6842F080021A60694D2846214600F028
:101D90005FFB6848214600F05BFB6748214600F086
:101DA00057FB6648214600F053FB2B68644A1968CC
:101DB0001A602B681C715C710221D971B2F1804FDD
:101DC00001D39A682AB90022042119725A729A72B0
:101DD000DA7200226FF003061E714FF0FF355D715D
:101DE000082018735A739A73DA7302279F71DF7190
:101DF0001872202159729A726FF03F01D9721969D5
:101E0000504919611E755D7518765A769A76DA769C
:101E1000D98A0121D982DC8BD983DFF818C19CF8DB
:101E200004408440B3F81C8044F020049C83404B61
:101E30001B7903F1804303F504331A70B1241C703D
:101E4000DCF80030404C04F10408D3F80090C3F8EB
:101E50000080DCF800301F715A7104271F735A7319
:101E60009A73DA738C469971D9711F725A729A7289
:101E7000DA721F69324F1F611E755D7518765A76CA
:101E80009A76DA76D88AD982D88BD983998B9A8335
:101E9000294B196808680C601B681A715A7183F81D
:101EA00007C0B4F1804F01D39A682AB900220221F9
:101EB00019725A729A72DA720022022119715A71D9
:101EC000042018735A739A73DA7301219971D971C6
:101ED00018725A729A72DA7219691C4919616FF094
:101EE0000F0119754FF0FF315975202119765A7677
:101EF0009A76DA76D98A0121D982DC8B28E000BF74
:101F0000D0C0FF1F90D1FF1F31D1FF1F34D1FF1F61
:101F1000604D000000900340089003403090044062
:101F2000349004400CC004404080044000800040D5
:101F300088D1FF1FE0D1FF1F50D1FF1F40D1FF1FED
:101F40004CD1FF1F88F00F400082FF1F1890034004
:101F5000D98339490C7924029D8B44F020049C8359
:101F6000364C237903F1804303F504331A70B4250A
:101F70001D700B681D68324D1D600B680C251D71AE
:101F80005A711A735A739A73DA739A71DA71402517
:101F90001D7258726FF00B0098726FF04000D8728B
:101FA0001869284818611A755A751A765A769A76F9
:101FB000DA76DA8A0C22DA82D88BDA839A8B0222DA
:101FC0009A830A79204E02F11003204846F8230034
:101FD00053119B0003F1604303F5614302F01F02BC
:101FE000012505FA02F21A60194A137903F16043D8
:101FF00003F56443FE201870107900F11003154FAB
:1020000046F8237043119B0003F1604303F56143DD
:1020100000F01F0085401D600F4B18790F4B1870A2
:1020200012791A7022791A700A791A7008220C4BE8
:102030001A60BDE8F88F00BF40D1FF1F50D1FF1FCD
:102040008083FF1FC0F00F400090FF1F4916000063
:10205000E0D1FF1F111A000088D1FF1F1B80004034
:102060000090034038B50B4D0B4C0C4829462246D6
:1020700001F08CFB0A482946224601F087FB0948FB
:102080002946224601F082FB07482946224601F0F4
:102090007DFB38BDD1160000C0C0FF1F88D1FF1FD7
:1020A000E0D1FF1F50D1FF1F40D1FF1F844641EAFE
:1020B000000313F003036DD1403A41D351F8043BC0
:1020C00040F8043B51F8043B40F8043B51F8043B12
:1020D00040F8043B51F8043B40F8043B51F8043B02
:1020E00040F8043B51F8043B40F8043B51F8043BF2
:1020F00040F8043B51F8043B40F8043B51F8043BE2
:1021000040F8043B51F8043B40F8043B51F8043BD1
:1021100040F8043B51F8043B40F8043B51F8043BC1
:1021200040F8043B51F8043B40F8043B51F8043BB1
:1021300040F8043B51F8043B40F8043B403ABDD220
:10214000303211D351F8043B40F8043B51F8043BC2
:1021500040F8043B51F8043B40F8043B51F8043B81
:1021600040F8043B103AEDD20C3205D351F8043B51
:1021700040F8043B043AF9D2043208D0D2071CBF1D
:1021800011F8013B00F8013B01D30B880380604646
:10219000704700BF082A13D38B078DD010F00303BC
:1021A0008AD0C3F10403D21ADB071CBF11F8013B2C
:1021B00000F8013B80D331F8023B20F8023B7BE77B
:1021C000043AD9D3013A11F8013B00F8013BF9D2A6
:1021D0000B7803704B7843708B7883706046704740
:1021E000024B1A6801321A60704700BFE8D1FF1F26
:1021F00008B50D4C236813F4802F01D0FEF7F4F9D5
:10220000236813F4806F01D000F044FC236813F4BA
:10221000006F01D000F0BAFE236813F4805FE9D0AC
:1022200001F0C2F8E6E700BF3480044008B5FFF7CC
:10223000DFFF00BF1022014B1A80704700200540CD
:10224000704700BFEFF31383ABB9EFF31083ABB963
:10225000EFF3058323B10F2B05D9094A985C03E0FE
:102260004FF4807000E00020EFF311833BB1834214
:1022700038BF184670474FF0FF3070470020704756
:10228000F0E300E0044B00221A6004490A60044AAB
:10229000106010221A60704714D0034004D003402D
:1022A00000D0034021281ED80F4B53F8303093F84C
:1022B000802212F0FF0F08D019B1012283F880208C
:1022C0007047012283F800217047074B03EBC000E1
:1022D000436821B11A6842F003021A6070471A6815
:1022E00022F002021A607047644D000021281CD8B9
:1022F0000E4B03EBC0035B68012908D10B4A52F86F
:10230000302082F880124FF4A2721A607047074A98
:1023100052F83020002082F8800219B94FF4807200
:102320001A60704740F203121A607047644D000053
:1023300072B60C4B1B680C4A12680C49096862B6ED
:1023400011F0806F02D0322B88BF0132C3F5BB334E
:10235000FF330749A1FB03039B094FF47A7000FB8D
:102360000230704718E000E0E8D1FF1F04ED00E004
:10237000ABAAAAAA38B50546FFF7DAFF044665B14D
:10238000FFF7D6FF001BB0F57A7F03D3013D04D0E1
:1023900004F57A7400F0DCF8F2E738BD10B5254B8F
:1023A0004FF400021A604FF080721A604FF0007212
:1023B0001A604FF080621A604FF000621A600020CD
:1023C0001D4B18604BF6FF710433196028231B4A1C
:1023D0001360083213600832136008321360083249
:1023E0001360083213600832136008321360092248
:1023F000134C226004F580540434206004342160BE
:102400000434236008342360143C226004F5FE2465
:10241000043420600B4801600B490B6008310B60ED
:102420000A4B1A6000F0B0F80420FFF7A3FFFEF794
:102430006BFB10BD08E100E0048003400C8003400A
:102440000080034008800B400C800B4000800B4054
:1024500030B472B699B902688AB103790F2B0ED8DD
:1024600027490988194111F0010F08D003F10073C1
:1024700003F59063B2EB431F01D162B63EE0204BFF
:102480001D882946002341FA03F212F0010F2DD1D5
:10249000012202FA03F42543194A158062B6DAB222
:1024A000027118490C6844F002040C6004390C688D
:1024B00044F002040C60822413490C601A310A7043
:1024C00004310A7006390A7007310A7003F100738B
:1024D00003F590635B01036000221A605A609A6002
:1024E000DA601A615A619A61DA6107E00133102BF0
:1024F000C9D162B6002303601023037130BC70475A
:10250000ECD1FF1F408004400080004003790F2B76
:1025100010D8094A137072B6084B0279012101FAEA
:1025200002F2198821EA02021A8062B610230371AE
:1025300000230360704700BF1A800040ECD1FF1FEA
:1025400008B5FEF72BFDFEF745FD00F001F8FAE7B0
:1025500008B50C4B1B78A3B901220A4B1A7000F086
:1025600035FA08B100F0F6FF00F0ACFC08B101F05C
:1025700077F800F0C9FE08B101F0F8F80022014B2D
:102580001A7008BDEED1FF1F60223A4B1A70E1228B
:1025900001331A70384B1B78082B10D1012203F13C
:1025A000804303F56C331A60132334490B6001F543
:1025B000FF2101F2FC710A60314A13601FE00A2B0F
:1025C0000DD139222F4B1A6013232C490B6001F5D2
:1025D000FF2101F2FC710A60294A13600FE00C2B05
:1025E0000CBF35223D22274B1A60122323490B6072
:1025F00001F5FF2101F2FC710A60214A1360224BB0
:102600001B7833B10123214A136002F500221360C5
:1026100005E000231D4A136002F5002213601C4BE5
:102620001B78012B06D880231A4A136002F500227A
:1026300013601AE0042B06D88423164A136002F5AF
:102640000022136011E0082B06D88523114A13607D
:1026500002F50022136008E0102B94BF8623872325
:102660000C4A136002F50022136001220A4B1A7013
:10267000704700BF00400740D1C0FF1F0CB00340AF
:102680000CB00B4008B00340F0D1FF1F20B0034056
:10269000D2C0FF1F24B00340EFD1FF1F194B1A68AF
:1026A00042F480621A600023174A1370174A1370AD
:1026B000174A1370174A1370174A137040F21332F7
:1026C000164B1A604FF4517204331A60C0F344324F
:1026D000134B1A70C0F347125A7000F01F00987223
:1026E00004229A700221D9745A7588221A743C22E5
:1026F000DA7040220B4B1A704FF40052A3F22933C8
:102700001A6070473480044074D2FF1FF2D1FF1F5B
:102710007CD2FF1F75D2FF1FF1D1FF1F40A00440E4
:1027200000A006402DE400E0164B9B7803F0EC037C
:1027300000F00302134310F0040F18BF43F010031E
:10274000104A937000F00F03042B04D113469279C2
:1027500042F040029A710B4B5A7902F0EF0210F0EE
:10276000100F18BF42F01002064B5A719B7903F00C
:10277000EF0310F0200F18BF43F01003014A9371CC
:10278000704700BF00A0064010B5114B1B6813F442
:10279000806F1CD00F4B1B7813F0FF0F06D00D4C31
:1027A000FFF7D6FE237813F0FF0FF9D14FF4005254
:1027B000094B1A600023094AD37040F203120849FA
:1027C0000A6004310A60074A1370074A137010BD8B
:1027D00034800440F1D1FF1F84E100E000A00640F6
:1027E00040A0044074D2FF1FF2D1FF1F10B5044671
:1027F000094A137813F0FF0FFBD120460121FFF7A0
:1028000075FD20460021FFF74DFD044B53F83420A1
:10281000034B1A6010BD00BFF1D1FF1F644D0000D3
:1028200078D2FF1F2DE9F04107461F4B1B6813F4B8
:10283000806F37D01D4B1B680BB101221A701C4BE7
:102840001C780134402C28BF00241A4D1A4EDFF8A2
:102850006C8017E0FFF7F6FC40280FDC337913F0AB
:10286000800F0FD02B780133402B28BF002318F89E
:102870000320D2B2F271DBB22B7003E0FF2801DD3E
:10288000FFF766FE2B78DBB29C42E3D0FFB20B4B26
:102890001F5501220A4B1A70E4B2054B1C70BC2272
:1028A000054BDA70BDE8F0813480044078D2FF1F18
:1028B0007CD2FF1F75D2FF1F00A00640F4D1FF1F7E
:1028C000F1D1FF1F2DE9F84F0746284B1B6813F481
:1028D000806F49D0264B1B680BB101221A7007EBA1
:1028E000010B5F453DD2DFF89890224EDFF88C80D7
:1028F000DFF890A099F800400134402C28BF002454
:102900003578EDB2A54220D1BC2388F80330FFF71B
:1029100099FC402811DC98F8043013F0800F10D097
:1029200033780133402B28BF00231AF80320D2B29A
:1029300088F80720DBB2337003E0FF2801DDFFF7E2
:1029400007FE3378DBB29D42E1D017F8013B0AF86D
:1029500004300122084B1A70E4B289F800405F4548
:10296000C8D1BC22054BDA70BDE8F88F3480044032
:1029700078D2FF1F75D2FF1FF1D1FF1F00A00640C4
:102980007CD2FF1FF4D1FF1F10B5064B1B7813F04C
:10299000FF0F06D0034CFFF7DBFD237813F0FF0F8A
:1029A000F9D110BDF1D1FF1F064B1B78DBB2064AEF
:1029B0001278D2B293422CBF3F3202F1FF32D01ACA
:1029C000704700BF7CD2FF1F75D2FF1F054B1878E0
:1029D000C0B2054B1B78DBB2984238BF4030C01AFA
:1029E000704700BF74D2FF1FF2D1FF1F0A4B1A7845
:1029F000D2B20A4B1B78DBB29A4209D00133402B8A
:102A000028BF0023064AD05CDBB2044A137070472B
:102A10004FF0FF30704700BF74D2FF1FF2D1FF1F8D
:102A200034D2FF1F094B1A78D2B2094B1B78DBB2A4
:102A30009A4207D00133402B28BF0023054AD05CBF
:102A4000C0B270474FF0FF30704700BF74D2FF1F15
:102A5000F2D1FF1F34D2FF1F0A4B1B6813F4806FA3
:102A60000FD0094BDA7802F0CB02DA7040225A74A8
:102A7000DA7842F03402DA70044B1A78D2B2044B9E
:102A80001A7070473480044000A00640F2D1FF1F46
:102A900074D2FF1F70B4364B1B7913F0300F25D062
:102AA00072B6334B9B7D03F0FF022BB9304BDA79C2
:102AB00040225A7462B619E062B62E4B1978C9B238
:102AC0002D4B1D78EDB22A4C2C4EE379D8B24B1C1D
:102AD000402B28BF0023AB421CBFF0541946531EA5
:102AE00013F0FF02F1D1C9B2224B1970204BDA78F2
:102AF000D2B212F0800F27D01B7913F0800F23D0B1
:102B00001F4B1C78E4B21F4B1B78DBB29C4210D0E9
:102B100017491D4D01E0A3420BD00133402B28BFC4
:102B200000230879E85CC0B2C871087DC0B20728EC
:102B3000F1D9DBB213490B700D4B1B7913F0800FE9
:102B400002D07C210A4BD97012F0400F0ED0084BF6
:102B50001B7913F0400F09D000220C4B1A700C4B5C
:102B60001B6803B11A703C22014BDA7070BC7047CD
:102B700000A0064074D2FF1FF2D1FF1F34D2FF1F06
:102B80007CD2FF1F75D2FF1FF4D1FF1FF1D1FF1FB1
:102B900078D2FF1F194B1A6842F400621A600023B2
:102BA000174A1370174A1370174A1370174A137095
:102BB000174A137040F21332164B1A604FF45172D9
:102BC00004331A60C0F34432134B1A70C0F3471237
:102BD0005A7000F01F00987204229A700221D97472
:102BE0005A7588221A743C22DA7040220B4B1A70F4
:102BF0004FF40042A3F22B331A6070473480044034
:102C0000E8D2FF1F7ED2FF1FF0D2FF1FE9D2FF1FC5
:102C10007DD2FF1F0CB0044000B006402FE400E05E
:102C2000164B9B7803F0EC0300F00302134310F003
:102C3000040F18BF43F01003104A937000F00F0305
:102C4000042B04D11346927942F040029A710B4B47
:102C50005A7902F0EF0210F0100F18BF42F0100284
:102C6000064B5A719B7903F0EF0310F0200F18BF49
:102C700043F01003014A9371704700BF00B0064053
:102C800010B5114B1B6813F4006F1CD00F4B1B7851
:102C900013F0FF0F06D00D4CFFF75AFC237813F00A
:102CA000FF0FF9D14FF40042094B1A600023094A83
:102CB000D37040F2031208490A6004310A60074ADF
:102CC0001370074A137010BD348004407DD2FF1F7B
:102CD00084E100E000B006400CB00440E8D2FF1FE1
:102CE0007ED2FF1F10B50446094A137813F0FF0F78
:102CF000FBD120460121FFF7F9FA20460021FFF71A
:102D0000D1FA044B53F83420034B1A6010BD00BFB6
:102D10007DD2FF1F644D0000ECD2FF1F2DE9F04172
:102D200007461F4B1B6813F4006F37D01D4B1B6801
:102D30000BB101221A701C4B1C780134282C28BFBF
:102D400000241A4D1A4EDFF86C8017E0FFF77AFA6C
:102D500040280FDC337913F0800F0FD02B7801332C
:102D6000282B28BF002318F80320D2B2F271DBB25F
:102D70002B7003E0FF2801DDFFF7EAFB2B78DBB2C5
:102D80009C42E3D0FFB20B4B1F5501220A4B1A7035
:102D9000E4B2054B1C70BC22054BDA70BDE8F08133
:102DA00034800440ECD2FF1FF0D2FF1FE9D2FF1F96
:102DB00000B0064080D2FF1F7DD2FF1F2DE9F84FE3
:102DC0000746284B1B6813F4006F49D0264B1B683D
:102DD0000BB101221A7007EB010B5F453DD2DFF802
:102DE0009890224EDFF88C80DFF890A099F8004090
:102DF0000134282C28BF00243578EDB2A54220D11B
:102E0000BC2388F80330FFF71DFA402811DC98F83E
:102E1000043013F0800F10D033780133282B28BFF3
:102E200000231AF80320D2B288F80720DBB23370EF
:102E300003E0FF2801DDFFF78BFB3378DBB29D4217
:102E4000E1D017F8013B0AF804300122084B1A7050
:102E5000E4B289F800405F45C8D1BC22054BDA7066
:102E6000BDE8F88F34800440ECD2FF1FE9D2FF1F89
:102E70007DD2FF1F00B00640F0D2FF1F80D2FF1F9F
:102E800010B5064B1B7813F0FF0F06D0034CFFF76D
:102E90005FFB237813F0FF0FF9D110BD7DD2FF1F28
:102EA000064B1B78DBB2064A1278D2B293422CBF93
:102EB000273202F1FF32D01A704700BFF0D2FF1F55
:102EC000E9D2FF1F054B1878C0B2054B1B78DBB267
:102ED000984238BF4030C01A704700BFE8D2FF1F89
:102EE0007ED2FF1F0A4B1A78D2B20A4B1B78DBB294
:102EF0009A4209D00133402B28BF0023064AD05CF8
:102F0000DBB2044A137070474FF0FF30704700BFC8
:102F1000E8D2FF1F7ED2FF1FA8D2FF1F094B1A78ED
:102F2000D2B2094B1B78DBB29A4207D00133402B57
:102F300028BF0023054AD05CC0B270474FF0FF3075
:102F4000704700BFE8D2FF1F7ED2FF1FA8D2FF1F2D
:102F50000A4B1B6813F4006F0FD0094BDA7802F0AC
:102F6000CB02DA7040225A74DA7842F03402DA7016
:102F7000044B1A78D2B2044B1A7070473480044064
:102F800000B006407ED2FF1FE8D2FF1F70B4364B60
:102F90001B7913F0300F25D072B6334B9B7D03F0B5
:102FA000FF022BB9304BDA7940225A7462B619E02D
:102FB00062B62E4B1978C9B22D4B1D78EDB22A4C52
:102FC0002C4EE379D8B24B1C402B28BF0023AB42D8
:102FD0001CBFF0541946531E13F0FF02F1D1C9B2C1
:102FE000224B1970204BDA78D2B212F0800F27D022
:102FF0001B7913F0800F23D01F4B1C78E4B21F4BBA
:103000001B78DBB29C4210D017491D4D01E0A34252
:103010000BD00133282B28BF00230879E85CC0B20D
:10302000C871087DC0B20728F1D9DBB213490B7013
:103030000D4B1B7913F0800F02D07C210A4BD97005
:1030400012F0400F0ED0084B1B7913F0400F09D03F
:1030500000220C4B1A700C4B1B6803B11A703C22F7
:10306000014BDA7070BC704700B00640E8D2FF1F19
:103070007ED2FF1FA8D2FF1FF0D2FF1FE9D2FF1F91
:1030800080D2FF1F7DD2FF1FECD2FF1F174B1A68A3
:1030900042F480521A600023154A1370154A1370C7
:1030A000154A1370154A1370154A137040F2133104
:1030B000144A11604FF4517104321160C0F344316D
:1030C000114A1170C0F34711517000F01F00907247
:1030D000937013742C23D37040220C4B1A704FF44E
:1030E0000032A3F22D331A60704700BF34800440D1
:1030F0005CD3FF1FF2D2FF1F64D3FF1F5DD3FF1FFE
:10310000F1D2FF1F08C0044000C0064031E400E0D7
:10311000164B9B7803F0EC0300F00302134310F00E
:10312000040F18BF43F01003104A937000F00F0310
:10313000042B04D11346927942F040029A710B4B52
:103140005A7902F0EF0210F0100F18BF42F010028F
:10315000064B5A719B7903F0EF0310F0200F18BF54
:1031600043F01003014A9371704700BF00C006404E
:1031700010B5114B1B6813F4805F1CD00F4B1B78EC
:1031800013F0FF0F06D00D4CFFF7E2F9237813F090
:10319000FF0FF9D14FF40032094B1A600023094A9E
:1031A000D37040F2031208490A6004310A60074AEA
:1031B0001370074A137010BD34800440F1D2FF1F12
:1031C00084E100E000C0064008C004405CD3FF1F5B
:1031D000F2D2FF1F10B50446094A137813F0FF0F0F
:1031E000FBD120460121FFF781F820460021FFF79F
:1031F00059F8044B53F83420034B1A6010BD00BF3C
:10320000F1D2FF1F644D000060D3FF1F2DE9F04194
:1032100007461F4B1B6813F4805F37D01D4B1B689C
:103220000BB101221A701C4B1C780134282C28BFCA
:1032300000241A4D1A4EDFF86C8017E0FFF702F8F1
:1032400040280FDC337913F0800F0FD02B78013337
:10325000282B28BF002318F80320D2B2F271DBB26A
:103260002B7003E0FF2801DDFFF772F92B78DBB24A
:103270009C42E3D0FFB20B4B1F5501220A4B1A7040
:10328000E4B2054B1C70AC22054BDA70BDE8F0814E
:103290003480044060D3FF1F64D3FF1F5DD3FF1F42
:1032A00000C00640F4D2FF1FF1D2FF1F38B505461B
:1032B0000C4629B115F8010BFFF7A8FF013CF9D125
:1032C00038BD00BF10B5064B1B7813F0FF0F06D0BA
:1032D000034CFFF73DF9237813F0FF0FF9D110BD30
:1032E000F1D2FF1F064B1B78DBB2064A1278D2B22E
:1032F00093422CBF273202F1FF32D01A704700BF31
:1033000064D3FF1F5DD3FF1F054B1878C0B2054B78
:103310001B78DBB2984238BF4030C01A704700BFFC
:103320005CD3FF1FF2D2FF1F0A4B1A78D2B20A4BAE
:103330001B78DBB29A4209D00133402B28BF00230F
:10334000064AD05CDBB2044A137070474FF0FF307E
:10335000704700BF5CD3FF1FF2D2FF1F1CD3FF1FBB
:10336000094B1A78D2B2094B1B78DBB29A4207D0CC
:103370000133402B28BF0023054AD05CC0B2704700
:103380004FF0FF30704700BF5CD3FF1FF2D2FF1F2A
:103390001CD3FF1F024B1A78D2B2024B1A7070472F
:1033A000F2D2FF1F5CD3FF1F264B1B7913F0200FB7
:1033B00012D0244BDB79D9B2234B1B780133402B3D
:1033C00028BF0023214A1278D2B29A4204D0204A60
:1033D000D154DBB21C4A13701A4BDB78DBB213F00A
:1033E000800F1CD0174A127912F0800F17D0194A9B
:1033F0001178C9B2184A1278D2B2914203D16C2125
:10340000104AD1700BE00132282A28BF002213494C
:10341000885CC0B20B49C871D2B20F490A7013F070
:10342000400F0ED0074B1B7913F0400F09D000223C
:103430000B4B1A700B4B1B6803B11A702C22014BFB
:10344000DA70704700C006405CD3FF1FF2D2FF1F46
:103450001CD3FF1F64D3FF1F5DD3FF1FF4D2FF1FD8
:10346000F1D2FF1F60D3FF1F08B503681B68C9B204
:10347000984708BD08B503681B68C9B2984708BDDE
:1034800008B503681B68C9B2984708BD08B503684A
:103490001B68C9B2984708BD08B54B0803F13760EF
:1034A00000F5D830B0FBF1F0FFF7F8F808BD00BF29
:1034B00010B514464B0803F1376000F5D830B0FB67
:1034C000F1F0FFF7EBF82046FFF72EF910BD00BF33
:1034D00008B5FFF759F908BD08B50846FFF786F9A2
:1034E00008BD00BF08B5FFF771FA08BD08B5FFF7C2
:1034F00099FA08BD08B5FFF779FA08BD08B5FFF7D6
:1035000043FA08BD08B5FFF7A7FA08BD08B5FFF7ED
:103510004BFA08BD08B50846FFF784F9012008BD3D
:1035200008B50846FFF77EF9012008BD10B514461E
:1035300008461146FFF7C6F9204610BD38B50D46BE
:10354000084600F0A5F9044628462146FFF7BAF9D7
:10355000204638BD704700BF044B00221A714FF45B
:103560007A7199601A73024A1A60704768D3FF1F14
:10357000804E000008B503681B68C9B2984708BDB3
:1035800008B503681B68C9B2984708BD08B5036849
:103590001B68C9B2984708BD08B503681B68C9B263
:1035A000984708BD08B54B0803F1376000F5D830DF
:1035B000B0FBF1F0FFF7EEFA08BD00BF10B51446FE
:1035C0004B0803F1376000F5D830B0FBF1F0FFF79E
:1035D000E1FA2046FFF724FB10BD00BF08B5FFF756
:1035E0004FFB08BD08B50846FFF77CFB08BD00BFD0
:1035F00008B5FFF767FC08BD08B5FFF78FFC08BDED
:1036000008B5FFF76FFC08BD08B5FFF739FC08BD2A
:1036100008B5FFF79DFC08BD08B5FFF741FC08BDE4
:1036200008B50846FFF77AFB012008BD08B5084633
:10363000FFF774FB012008BD10B51446084611467B
:10364000FFF7BCFB204610BD38B50D46084600F01C
:103650001FF9044628462146FFF7B0FB204638BD37
:10366000704700BF044B00221A714FF47A719960C1
:103670001A73024A1A60704778D3FF1FD04E0000B9
:1036800008B503681B68C9B2984708BD08B5036848
:103690001B68C9B2984708BD08B503681B68C9B262
:1036A000984708BD08B503681B68C9B2984708BDAC
:1036B00008B54B0803F1B76000F55840B0FBF1F0D6
:1036C000FFF7E4FC08BD00BF10B514464B0803F13A
:1036D000B76000F55840B0FBF1F0FFF7D7FC20468B
:1036E000FFF716FD10BD00BF08B5FFF741FD08BD8F
:1036F00008B50846FFF76EFD08BD00BF08B5FFF727
:1037000003FE08BD08B5FFF72BFE08BD08B5FFF79F
:103710000BFE08BD08B5FFF7D5FD08BD08B5FFF7DE
:1037200039FE08BD08B5FFF7DDFD08BD08B5084640
:10373000FFF76CFD012008BD08B50846FFF766FDE0
:10374000012008BD10B5144608461146FFF7AEFD2E
:10375000204610BD38B50D46084600F099F80446DD
:1037600028462146FFF7A2FD204638BD704700BF1E
:10377000044B00221A714FF47A7199601A73024A4D
:103780001A60704788D3FF1F204F00000346084689
:10379000194600F001B800BF10B40C4613460146AC
:1037A000224602205DF8044B00F0D4B870B50F4EED
:1037B0000F4D761BB61007D0043D0024013455F898
:1037C000043F9847A642F9D10A4E0B4D761B01F0F3
:1037D000CFFBB61008D0043D0024013455F8043F57
:1037E0009847A642F9D170BD70BD00BF7C4F000064
:1037F0007C4F0000984F00007C4F0000F0B484071D
:1038000043D0541E002A3ED0CDB2034603E0621ED0
:10381000002C38D0144603F8015B9A07F7D1032C2B
:103820002AD9CDB245EA05250F2C45EA054515D91B
:10383000A4F110073F0903F1100606EB07161A461C
:10384000156055609560D5601032B242F8D104F031
:103850000F040137032C03EB07130DD91E46224634
:10386000043A032A46F8045BFAD8221F22F0030226
:103870000432134404F003042CB1C9B21C4403F80D
:10388000011BA342FBD1F0BC704714460346C6E7B8
:1038900020F0030110F00300C0F1000051F8043BD8
:1038A00000F1040C4FEACC0C6FF000021CBF22FAAE
:1038B0000CF213434FF0010C4CEA0C2C4CEA0C4C6C
:1038C000A3EB0C0222EA030212EACC1204BF51F865
:1038D000043B0430F4D013F0FF0F1FBF013013F48A
:1038E0007F4F013013F47F0F18BF0130704700BFC6
:1038F00040EA01039B0770B42AD1032A28D90C4659
:103900000346214654F8045BA5F1013626EA050674
:1039100016F0803F05D1043A032A43F8045B2146A0
:10392000EFD89AB10C781C70013A01333CB16AB1FE
:1039300011F8014F03F8014B013A002CF7D12AB1DD
:103940001A44002103F8011B9342FBD170BC70475D
:103950000346E6E7F0B5274C2668D6F8484185B01F
:103960000746002C41D065681F2D1EDD224818B97E
:103970004FF0FF3005B0F0BD4FF4C87003910292D4
:103980000193AFF300800399029A019B044600283B
:10399000EED0D6F848512560002060600546C6F894
:1039A0004841C4F88801C4F88C013FB9AB1C002021
:1039B0000135656044F8231005B0F0BD04EB8500C7
:1039C0004FF0010CC0F88820D4F888610CFA05F299
:1039D0001643022FC4F88861C0F80831E6D1D4F844
:1039E0008C311A43C4F88C21E0E706F5A674C6F8BA
:1039F0004841B8E76C4F000000000000024B13B1D3
:103A0000024800F005B87047000000001D3A0000B1
:103A10000146002002460346FFF79CBF38B5094D1A
:103A2000094C641BA41018BF05EB840505D0013CAC
:103A300055F8043D9847002CF9D1BDE8384001F015
:103A4000ABBA00BF000000000000000014034600F5
:103A5000610064006500630061006E00640079002D
:103A600012034D0053004600540031003000300076
:103A70007E000000920000000001050001008800A7
:103A80000000070000002A0044006500760069007D
:103A90006300650049006E007400650072006600F6
:103AA0006100630065004700550049004400730051
:103AB0000000500000007B00360032006600640009
:103AC00034003100320033002D003800370065002B
:103AD00033002D0034003700660065002D003900EA
:103AE0003400360061002D006500300034003400E1
:103AF0006600330036006600320066006200330064
:103B00007D000000000000004000000000010400F3
:103B10000200000000000000000157494E555342CA
:103B20000000000000000000000000000000000095
:103B3000010157494E5553420000000000000000AB
:103B40000000000000000000120100020000004020
:103B5000501DBF60070101020301000019000000B1
:103B60002A034600610064006500630061006E0086
:103B700064007900200042006F006F0074006C0048
:103B80006F006100640065007200000012037300A2
:103B9000630061006E006C0069006D00650000004C
:103BA00000010000483B000012000000000200007D
:103BB0000C3C00002B00000000030000383C00001B
:103BC00000000000010300008C3B0000000000002A
:103BD000020300004C3A0000000000000303000054
:103BE0001CC5FF1F0000000004030000603B000034
:103BF00000000000EE030000603A0000000000003A
:103C000000000000000000000000000009022B007E
:103C100002010080320904000001FF0000000705D6
:103C200001024000000904010000FE010104092115
:103C30000D1027000401010004030904FFFFFFFF2A
:103C40000000000000000000D90D0000790F000006
:103C5000450E0000000000006661646563616E64EB
:103C60007900FFFFA000A000A000000000000000FD
:103C7000404040004000A0A000000000A0F0A0F0E4
:103C8000A00040E0C020E04080204080200040A014
:103C900040A0500040400000000020404040402034
:103CA000804040404080A040E040A0004040E040D4
:103CB00040000000000040800000E0000000000024
:103CC0000000400020204080800040A0E0A0400094
:103CD00040C04040E00040A02040E000E020402004
:103CE000C000A0A0E0202000E080C020C0006080D4
:103CF000C0A04000E0204080800060A040A0C00044
:103D000040A06020C00000400000400000400000D3
:103D1000408020408040200000E000E00000804023
:103D200020408000C0204000400060A0A0806000D3
:103D300040A0E0A0A000C0A0C0A0C00040A080A003
:103D40004000C0A0A0A0C000E080C080E000E080F3
:103D5000C08080006080A0A06000A0A0E0A0A000C3
:103D6000E0404040E000202020A04000A0A0C0A0F3
:103D7000A00080808080E000A0E0E0A0A00020A063
:103D8000E0A0800040A0A0A04000C0A0C0808000B3
:103D900040A0A0A04020C0A0C0A0A0006080402003
:103DA000C000E04040404000A0A0A0A0E000A0A0D3
:103DB000A0E04000A0A0E0E0A000A0A040A0A000E3
:103DC000A0A040404000E0204080E0006040404033
:103DD0006000808040202000C0404040C00040A0E3
:103DE000000000000000000000E040200000000093
:103DF0000060A0A0600080C0A0A0C0000060808023
:103E000060002060A0A060000040A0C060002040D2
:103E1000E04040000060A06020C080C0A0A0A000E2
:103E20004000C040E0002000202020C080A0C0A0B2
:103E3000A000C0404040E00000A0E0A0A00000C002
:103E4000A0A0A0000040A0A0400000C0A0C08080B2
:103E50000060A0A0602000A0C08080000060C020A2
:103E6000C00040E04040200000A0A0A0600000A0F2
:103E7000A0A0400000A0A0E0A00000A04040A00042
:103E800000A0A06020C000E02040E0002040C04032
:103E9000402040404040400080406040408050A072
:103EA0000000000000000000000040004040400012
:103EB00040E080E0400020406040A0000090606052
:103EC0009000A040E040400040400040400060C002
:103ED000A06020C0A000000000006090D0D09060E2
:103EE00060A06000E0000050A05000000000E02052
:103EF00000000000E000000060F0D0600000E00082
:103F00000000000040A04000000040E04000E00051
:103F1000C04080C00000C0408040800020400000C1
:103F2000000000A0A0A0C08070D0D05050000000C1
:103F30004000000000000020400040C04040000061
:103F400040A04000E00000A050A000008080805011
:103F500070108080B0102030C0408050B010400001
:103F6000408060008040A0E0A0002040A0E0A000D1
:103F7000C040A0E0A00060C0A0E0A000A040A0E081
:103F8000A0004040A0E0A00070A0F0A0B00040A0C1
:103F900080A0408080E0C080E00020E0C080E000A1
:103FA00060E0C080E000A0E0C080E00080E0404031
:103FB000E00020E04040E00040E04040E000A04061
:103FC0004040E000E050D050E00050A0E0E0A00011
:103FD0008040A0A040002040A0A040004040A0A001
:103FE000400070E0A0A04000A040A0A0400000A0C1
:103FF00040A0000060A0E0A0C0008040A0A0E000C1
:104000002040A0A0E0004000A0A0E000A000A0A0F0
:10401000E0002000A040400080C0A0C0800040A080
:10402000C0A0E080804060A06000204060A06000F0
:10403000600060A0600050A060A06000A00060A0D0
:104040006000400060A060000070B0A07000004000
:10405000A08060408040A0C060002040A0C0600000
:10406000C040A0C06000A040A0C0600080404040B0
:10407000E00020C04040E00040A04040E000A00040
:10408000C040E000A04060A0400050A0C0A0A00040
:10409000804040A04000204040A04000400040A0A0
:1040A0004000E00040A04000A00040A040004000D0
:1040B000E00040000060A0A0C0008040A0A0600020
:1040C0002040A0A060004000A0A06000A000A0A030
:1040D00060002040A0E020C08080C0A0C080A00080
:1040E000A0E020C00406C00000000000F440000072
:1040F000643C000000002000210022002300240076
:10410000250026002700280029002A002B002C006B
:104110002D002E002F00300031003200330034001B
:10412000350036003700380039003A003B003C00CB
:104130003D003E003F00400041004200430044007B
:10414000450046004700480049004A004B004C002B
:104150004D004E004F0050005100520053005400DB
:10416000550056005700580059005A005B005C008B
:104170005D005E005F00600061006200630064003B
:10418000650066006700680069006A006B006C00EB
:104190006D006E006F00700071007200730074009B
:1041A000750076007700780079007A007B007C004B
:1041B0007D007E00A000A100A200A300A400A50035
:1041C000A600A700A800A900AA00AB00AC00AD00A3
:1041D000AE00AF00B000B100B200B300B400B50053
:1041E000B600B700B800B900BA00BB00BC00BD0003
:1041F000BE00BF00C000C100C200C300C400C500B3
:10420000C600C700C800C900CA00CB00CC00CD0062
:10421000CE00CF00D000D100D200D300D400D50012
:10422000D600D700D800D900DA00DB00DC00DD00C2
:10423000DE00DF00E000E100E200E300E400E50072
:10424000E600E700E800E900EA00EB00EC00ED0022
:10425000EE00EF00F000F100F200F300F400F500D2
:10426000F600F700F800F900FA00FB00FC00FD0082
:10427000FE00FF000507C00000000000C44700006A
:104280008442000000A8008800A800000000000090
:10429000000020202020002000505050000000008E
:1042A0000050F850F850000070A070287000809006
:1042B00020409010000040A040A05000202020008E
:1042C00000000020404040402000402020202040AE
:1042D0000000502070205000002020F82020000016
:1042E000000000302040000000F00000000000004E
:1042F00000606000001020408000002050505050AE
:104300002000206020202070006090102040F000ED
:10431000F01060109060002060A0F0202000F0807D
:10432000E0109060006080E090906000F01020202D
:1043300040400060906090906000609090701060CD
:10434000000060600060600000606000604080000D
:104350001020402010000000F000F000000040207D
:1043600010204000205010200020006090B0B0804D
:104370006000609090F0909000E090E09090E000FD
:1043800060908080906000E090909090E000F080DD
:10439000E08080F000F080E080808000609080B05D
:1043A0009070009090F090909000702020202070ED
:1043B000001010101090600090A0C0C0A09000806D
:1043C00080808080F00090F0F09090900090D0D0AD
:1043D000B0B0900060909090906000E09090E0808D
:1043E000800060909090D06010E09090E0A09000ED
:1043F000609040209060007020202020200090904D
:10440000909090600090909090606000909090F0FC
:10441000F0900090906060909000505050202020CC
:1044200000F010204080F0007040404040700000DC
:1044300080402010000070101010107000205000FC
:10444000000000000000000000F00040200000001C
:10445000000000007090B050008080E09090E0007C
:10446000000060808060001010709090700000006C
:1044700060B0C06000205040E040400000007090FC
:104480006080708080E0909090002000602020701C
:1044900000100010101050208080A0C0A09000607C
:1044A0002020202070000000A0F09090000000E08C
:1044B00090909000000060909060000000E090906C
:1044C000E080000070909070100000E0908080000C
:1044D000000070C030E0004040E04040300000008C
:1044E000909090700000005050502000000090907C
:1044F000F0F000000090606090000000909050206C
:10450000400000F02040F00010206020201000202B
:104510002020202020004020302020400050A000FB
:10452000000000000000000000000020002020200B
:104530002000002070A0A07020003040E040B000BB
:10454000008870507088005050207020200000209B
:1045500020002020003040605030106050000000EB
:104560000000007088A8C8A8887060A060000000E3
:104570000000004890480000000000F0100000001B
:104580000000700000007088E8C8C88870F0000063
:1045900000000000205020000000002020F8202013
:1045A000F8006020406000000060602060000000B3
:1045B000204000000000000000909090E08070D04B
:1045C000D05050500000006060000000000000006B
:1045D0000020402060207000000040A0400000004B
:1045E0000000009048900000808080903070108023
:1045F0008080B0102030C0C040D03070102000202B
:1046000040502000609090F0909000609090F0906A
:104610009000609090F0909000609090F0909000EA
:10462000906090F0909000606090F090900070A08A
:10463000B0E0A0B00060908080906040F080E080AA
:1046400080F000F080E08080F000F080E08080F07A
:1046500000F080E08080F00070202020207000704A
:10466000202020207000702020202070007020204A
:1046700020207000E050D05050E000B090D0B0B09A
:10468000900060909090906000609090909060009A
:10469000609090909060006090909090600090602A
:1046A00090909060000000906060900070B0B0D07A
:1046B000D0E00090909090906000909090909060EA
:1046C00000909090909060009000909090600050CA
:1046D00050502020200080E090E08080006090A07A
:1046E0009090A00040207090B0500020407090B09A
:1046F000500020507090B0500050A07090B050000A
:1047000050007090B0500060607090B05000000099
:1047100070B0A0700000003040403020402060B0F9
:10472000C06000204060B0C0600040A060B0C060C9
:1047300000A00060B0C06000402060202070002019
:1047400040602020700020506020207000500060E9
:10475000202070004030609090600050A0E0909069
:104760009000402060909060002040609090600039
:104770006000609090600050A060909060005000D9
:104780006090906000006000F0006000000070B079
:10479000D0E0004020909090700020409090907069
:1047A00000600090909070005000909090700020F9
:1047B0004090905020400080E09090E08050009029
:1047C00090502040000020002100220023002400FF
:1047D000250026002700280029002A002B002C0095
:1047E0002D002E002F003000310032003300340045
:1047F000350036003700380039003A003B003C00F5
:104800003D003E003F0040004100420043004400A4
:10481000450046004700480049004A004B004C0054
:104820004D004E004F005000510052005300540004
:10483000550056005700580059005A005B005C00B4
:104840005D005E005F006000610062006300640064
:10485000650066006700680069006A006B006C0014
:104860006D006E006F0070007100720073007400C4
:10487000750076007700780079007A007B007C0074
:104880007D007E00A000A100A200A300A400A5005E
:10489000A600A700A800A900AA00AB00AC00AD00CC
:1048A000AE00AF00B000B100B200B300B400B5007C
:1048B000B600B700B800B900BA00BB00BC00BD002C
:1048C000BE00BF00C000C100C200C300C400C500DC
:1048D000C600C700C800C900CA00CB00CC00CD008C
:1048E000CE00CF00D000D100D200D300D400D5003C
:1048F000D600D700D800D900DA00DB00DC00DD00EC
:10490000DE00DF00E000E100E200E300E400E5009B
:10491000E600E700E800E900EA00EB00EC00ED004B
:10492000EE00EF00F000F100F200F300F400F500FB
:10493000F600F700F800F900FA00FB00FC00FD00AB
:10494000FE00FF00FFFFFF0000000000000000006D
:104950001D1500000D120000BD1100000000000038
:104960000000000000000100020004000600080032
:104970000B000F00140019001F0026002E00370046
:1049800041004B0057006300710080008F00A000C1
:10499000B200C500DA00EF0006011E013701520126
:1049A0006E018B01A901C901EB010E02320257020F
:1049B0007F02A702D202FD022B0359038A03BC0324
:1049C000EF0325045C049404CF040B054805880517
:1049D000C9050C0651069806E0062A077607C407A3
:1049E00014086608B9080F096709C0091B0A790A83
:1049F000D80A3A0B9D0B030C6A0CD40C3F0DAD0D7D
:104A00001D0E8F0E030F790FF20F6C10E910681155
:104A1000E9116C12F2127A13041490141F15B015D8
:104A20004316D91671170B18A7184619E8198B1ACF
:104A3000321BDA1B851C331DE21D951E491F012008
:104A4000BB2077213622F722BB2381244A25162654
:104A5000E426B52788285E29362A112BEF2BD02C87
:104A6000B32D992E812F6D305A314B323F3335346F
:104A70002E352936283729382D39333A3D3B493CE4
:104A8000593D6B3E803F9740B241D042F0431345C1
:104A90003A4663478F48BE49F04A254C5D4D974ED4
:104AA000D54F16515A52A153EB5438568757DA58FE
:104AB000315A8A5BE65C455EA75F0D617662E16311
:104AC0005065C2663768AF692B6BAA6C2B6EB06FEE
:104AD0003971C4725374E5757A771279AE7A4C7C69
:104AE000EF7D947F3D81E98298844B860188BA8965
:104AF000768B368DFA8EC0908A9258942996FD97BF
:104B0000D499B09B8E9D709F55A13EA32AA51AA74C
:104B10000DA904ABFEACFBAEFCB001B309B515B7F3
:104B200024B937BB4DBD67BF84C1A5C3CAC5F2C791
:104B30001ECA4DCC80CEB7D0F1D22FD571D7B6D901
:104B4000FEDB4BDE9BE0EFE247E5A2E701EA63EC28
:104B5000CAEE34F1A2F313F688F802FB7EFDFFFFE4
:104B60000000000000000000000000000000000045
:104B70000000000000000000000000000000000035
:104B80000000000000000000000000000000000025
:104B90000000000000000000000000000000000015
:104BA00000000101010101010101010101010101F7
:104BB00001010101010101010101010101010101E5
:104BC00001010101010102020202020202020202CB
:104BD00002020202020202020202020202030303B2
:104BE0000303030303030303030303030303030494
:104BF0000404040404040404040404040404050573
:104C0000050505050505050505050506060606064F
:104C1000060606060606060707070707070707072B
:104C20000707080808080808080808080909090902
:104C300009090909090A0A0A0A0A0A0A0A0A0B0BD7
:104C40000B0B0B0B0B0B0C0C0C0C0C0C0C0C0D0DA8
:104C50000D0D0D0D0D0E0E0E0E0E0E0E0F0F0F0F75
:104C60000000000000000101010101010101010239
:104C7000020202020202020203030303030303030C
:104C800004040404040405050505050606060606D5
:104C900007070707080808080909090A0A0A0A0B8A
:104CA0000B0B0C0C0C0D0D0D0E0E0F0F0F10101129
:104CB00011111212131314141515161617171818AC
:104CC00019191A1A1B1C1C1D1D1E1F1F2020212212
:104CD000222324252526272728292A2B2B2C2D2E55
:104CE0002F2F30313233343536363738393A3B3C72
:104CF0003D3E3F4041424344464748494A4B4C4D64
:104D00004F50515253555657585A5B5C5E5F606224
:104D100063646667696A6C6D6E70717374767879B6
:104D20007B7C7E8081838486888A8B8D8F91929410
:104D300096989A9B9D9FA1A3A5A7A9ABADAFB1B330
:104D4000B5B7B9BBBDBFC1C4C6C8CACCCFD1D3D615
:104D5000D8DADCDFE1E4E6E8EBEDF0F2F5F7FAFCB7
:104D6000FF0000004008FE4340A004404408FE430A
:104D700044A004400018FE4300C004403000FE433D
:104D8000309004403400FE43349004401C18FE432D
:104D90001CC004401018FE4310C004400818FE4315
:104DA00008C004400C18FE430CC004400C10FE4325
:104DB0000CB004401010FE4310B004401810FE4325
:104DC00018B004401C10FE431CB004401410FE43F5
:104DD00014B004400418FE4304C004400010FE4315
:104DE00000B004400008FE4300A004400408FE4355
:104DF00004A004400C08FE430CA004400808FE4335
:104E000008A004401418FE4314C004401818FE43C0
:104E100018C004400410FE4304B004400810FE43D0
:104E200008B004401400FE43149004404C08FE43B4
:104E30004CA004400420FE4304D004402410FE4350
:104E400024B004402010FE4320B004402810FE434C
:104E500028B004402C10FE432CB004400020FE4338
:104E600000D004404808FE4348A004401000FE4320
:104E700010900440FFFFFFFF000000000000000052
:104E8000153500002D350000E5340000F534000034
:104E9000ED340000FD34000099340000B13400000E
:104EA000D1340000D9340000053500000D35000074
:104EB0006934000075340000813400008D34000036
:104EC0003D3500002135000000000000000000001A
:104ED0002136000039360000F135000001360000AF
:104EE000F935000009360000A5350000BD35000089
:104EF000DD350000E53500001136000019360000F0
:104F000075350000813500008D35000099350000B1
:104F1000493600002D3600000000000000000000AF
:104F20002D37000045370000FD3600000D3700002A
:104F30000537000015370000B1360000C936000003
:104F4000E9360000F13600001D370000253700006B
:104F5000813600008D36000099360000A53600002D
:104F6000553700003937000043000000D8C0FF1F4C
:104F7000F8B500BFF8BC08BC9E467047FD3900007C
:104F800035040000F10F00006520000059350000D5
:084F90006536000071370000D6
:044F9800F8B500BFA9
:104F9C0000000000030000000000200020000000C2
:104FAC00010A04000000000000000000C4C3FF1F41
:104FBC002CC4FF1F94C4FF1F000000000000000061
:104FCC0000000000000000000000000000000000D5
:104FDC00000000000000000000000000684F00000E
:104FEC0000000000000000000000000000000000B5
:104FFC0000000000000000000000000000000000A5
:10500C000000000000000000000000000000000094
:10501C000000000000000000000000000000000084
:10502C000000000000000000000000000000000074
:10503C000000000000000000000000000000000064
:10504C000000000000000000000000000000000054
:10505C0001000000000000000E33CDAB34126DE6F1
:10506C00ECDE05000B00000000000000000000005A
:10507C000000000000000000000000000000000024
:10508C000000000000000000000000000000000014
:10509C000000000000000000000000000000000004
:1050AC0000000000000000000000000000000000F4
:00000001FF
